{
  "_format": "hh-sol-artifact-1",
  "contractName": "Donate",
  "sourceName": "contracts/Donate.sol",
  "abi": [
    {
      "inputs": [
        {
          "internalType": "address",
          "name": "_streamer",
          "type": "address"
        }
      ],
      "name": "donation",
      "outputs": [
        {
          "internalType": "address[]",
          "name": "",
          "type": "address[]"
        }
      ],
      "stateMutability": "view",
      "type": "function"
    },
    {
      "inputs": [
        {
          "internalType": "address",
          "name": "_to",
          "type": "address"
        }
      ],
      "name": "egg",
      "outputs": [
        {
          "internalType": "address",
          "name": "",
          "type": "address"
        }
      ],
      "stateMutability": "payable",
      "type": "function"
    },
    {
      "inputs": [
        {
          "internalType": "address",
          "name": "_to",
          "type": "address"
        }
      ],
      "name": "rocket",
      "outputs": [
        {
          "internalType": "address",
          "name": "",
          "type": "address"
        }
      ],
      "stateMutability": "payable",
      "type": "function"
    }
  ],
  "bytecode": "0x608060405234801561001057600080fd5b50610578806100206000396000f3fe6080604052600436106100345760003560e01c8063052c0d2e1461003957806318285fc314610069578063f457ee5a14610099575b600080fd5b610053600480360381019061004e919061040b565b6100d6565b6040516100609190610447565b60405180910390f35b610083600480360381019061007e919061040b565b6101d9565b6040516100909190610447565b60405180910390f35b3480156100a557600080fd5b506100c060048036038101906100bb919061040b565b6102dc565b6040516100cd9190610520565b60405180910390f35b6000662386f26fc1000034146100eb57600080fd5b8173ffffffffffffffffffffffffffffffffffffffff166108fc349081150290604051600060405180830381858888f19350505050158015610131573d6000803e3d6000fd5b506000808373ffffffffffffffffffffffffffffffffffffffff1673ffffffffffffffffffffffffffffffffffffffff168152602001908152602001600020339080600181540180825580915050600190039060005260206000200160009091909190916101000a81548173ffffffffffffffffffffffffffffffffffffffff021916908373ffffffffffffffffffffffffffffffffffffffff160217905550339050919050565b600066470de4df82000034146101ee57600080fd5b8173ffffffffffffffffffffffffffffffffffffffff166108fc349081150290604051600060405180830381858888f19350505050158015610234573d6000803e3d6000fd5b506000808373ffffffffffffffffffffffffffffffffffffffff1673ffffffffffffffffffffffffffffffffffffffff168152602001908152602001600020339080600181540180825580915050600190039060005260206000200160009091909190916101000a81548173ffffffffffffffffffffffffffffffffffffffff021916908373ffffffffffffffffffffffffffffffffffffffff160217905550339050919050565b60606000808373ffffffffffffffffffffffffffffffffffffffff1673ffffffffffffffffffffffffffffffffffffffff16815260200190815260200160002080548060200260200160405190810160405280929190818152602001828054801561039c57602002820191906000526020600020905b8160009054906101000a900473ffffffffffffffffffffffffffffffffffffffff1673ffffffffffffffffffffffffffffffffffffffff1681526020019060010190808311610352575b50505050509050919050565b600080fd5b600073ffffffffffffffffffffffffffffffffffffffff82169050919050565b60006103d8826103ad565b9050919050565b6103e8816103cd565b81146103f357600080fd5b50565b600081359050610405816103df565b92915050565b600060208284031215610421576104206103a8565b5b600061042f848285016103f6565b91505092915050565b610441816103cd565b82525050565b600060208201905061045c6000830184610438565b92915050565b600081519050919050565b600082825260208201905092915050565b6000819050602082019050919050565b610497816103cd565b82525050565b60006104a9838361048e565b60208301905092915050565b6000602082019050919050565b60006104cd82610462565b6104d7818561046d565b93506104e28361047e565b8060005b838110156105135781516104fa888261049d565b9750610505836104b5565b9250506001810190506104e6565b5085935050505092915050565b6000602082019050818103600083015261053a81846104c2565b90509291505056fea26469706673582212204f8cd5f199052e37eb459d9d361b58709a2e884dfe9c3dd2d7c4f56a385569bf64736f6c63430008130033",
  "linkReferences": {},
  "deployedLinkReferences": {}
}